{
  "contractName": "Oracle",
  "abi": [
    {
      "inputs": [],
      "stateMutability": "nonpayable",
      "type": "constructor"
    },
    {
      "anonymous": false,
      "inputs": [],
      "name": "CallbackNewData",
      "type": "event"
    },
    {
      "inputs": [],
      "name": "numberAsteroids",
      "outputs": [
        {
          "internalType": "uint256",
          "name": "",
          "type": "uint256"
        }
      ],
      "stateMutability": "view",
      "type": "function",
      "constant": true
    },
    {
      "inputs": [
        {
          "internalType": "uint256",
          "name": "_newNumberAsteroids",
          "type": "uint256"
        }
      ],
      "name": "setNumberAsteroids",
      "outputs": [],
      "stateMutability": "nonpayable",
      "type": "function"
    },
    {
      "inputs": [],
      "name": "update",
      "outputs": [],
      "stateMutability": "nonpayable",
      "type": "function"
    }
  ],
  "bytecode": "0x608060405234801561001057600080fd5b50336000806101000a81548173ffffffffffffffffffffffffffffffffffffffff021916908373ffffffffffffffffffffffffffffffffffffffff160217905550610286806100606000396000f3fe608060405234801561001057600080fd5b50600436106100415760003560e01c8063402bc6bb14610046578063829400cb14610062578063a2e6204514610080575b600080fd5b610060600480360381019061005b919061016b565b61008a565b005b61006a610094565b6040516100779190610203565b60405180910390f35b61008861009a565b005b8060018190555050565b60015481565b3373ffffffffffffffffffffffffffffffffffffffff1660008054906101000a900473ffffffffffffffffffffffffffffffffffffffff1673ffffffffffffffffffffffffffffffffffffffff1614610128576040517f08c379a000000000000000000000000000000000000000000000000000000000815260040161011f906101e3565b60405180910390fd5b7f8f883c15ebc4f878554e1afb10cd45375aafbd0bbca0f7af1a28f9b989e7f3e660405160405180910390a1565b60008135905061016581610239565b92915050565b60006020828403121561017d57600080fd5b600061018b84828501610156565b91505092915050565b60006101a1600a8361021e565b91507f4f6e6c79206f776e6572000000000000000000000000000000000000000000006000830152602082019050919050565b6101dd8161022f565b82525050565b600060208201905081810360008301526101fc81610194565b9050919050565b600060208201905061021860008301846101d4565b92915050565b600082825260208201905092915050565b6000819050919050565b6102428161022f565b811461024d57600080fd5b5056fea26469706673582212202403412333ec58c071b040012709751fbf7129cd603f351270f87270e4ebafb564736f6c63430008000033",
  "immutableReferences": {},
  "source": "\r\n// SPDX-License-Identifier: GPL-3.0\r\npragma solidity ^0.8.0;\r\n\r\ncontract Oracle {\r\n\r\n    // GET https://api.nasa.gov/neo/rest/v1/feed?start_date=START_DATE&end_date=END_DATE&api_key=API_KEY\r\n    \r\n    //direccion del owner\r\n    address owner;\r\n\r\n    //numero de asteroides\r\n    uint public numberAsteroids;\r\n\r\n    //evento que reciba datos del oraculo\r\n    event CallbackNewData();\r\n\r\n    //restriccio de la ejecucion de las funciones\r\n    modifier onlyOwner () {\r\n        require(owner == msg.sender, 'Only owner');\r\n        _;\r\n    }\r\n\r\n    //constructor\r\n    constructor() {\r\n        owner = msg.sender;\r\n    }\r\n\r\n    //funcion para configuracion manual del numero de asteroides\r\n    function setNumberAsteroids (uint _newNumberAsteroids) public {\r\n        numberAsteroids = _newNumberAsteroids;\r\n    }\r\n\r\n    //recibe datos del oraculo\r\n    function update() public onlyOwner {\r\n        emit CallbackNewData();\r\n    }\r\n\r\n\r\n}",
  "sourcePath": "C:\\d\\Cursos\\udemy\\joan-dapps_truffle_react\\03-oracle-nasa\\contracts\\Oracle.sol",
  "compiler": {
    "name": "solc",
    "version": "0.8.0+commit.c7dfd78e.Emscripten.clang"
  },
  "schemaVersion": "3.4.2",
  "updatedAt": "2022-02-20T01:53:52.163Z",
  "networkType": "ethereum",
  "devdoc": {
    "kind": "dev",
    "methods": {},
    "version": 1
  },
  "userdoc": {
    "kind": "user",
    "methods": {},
    "version": 1
  }
}